:100000000C942A000C9447000C9447000C94470071
:100010000C9447000C9447000C9447000C94EE1687
:100020000C9447000C9421170C9447000C94470043
:100030000C9447000C9447000C9447000C94470024
:100040000C9447000C9447000C9447000C94470014
:100050000C94470011241FBECFE5D8E0DEBFCDBF12
:1000600011E0A0E6B0E0EAE3F4E302C005900D92EF
:10007000A639B107D9F711E0A6E9B1E001C01D9298
:10008000A63AB107E1F70E9450060C941B1A0C9493
:100090000000EF92FF920F931F937B018C0120E0F1
:1000A00030E040E05FE40E94490388238CF0C801FF
:1000B000B70120E030E040E05FE40E94C1010E940F
:1000C00007049B01AC01205030404040504806C01E
:1000D000C801B7010E9407049B01AC01B901CA0124
:1000E0001F910F91FF90EF900895A0E0B0E0EBE733
:1000F000F0E00C949F19DC012B01FA019C919230E5
:1001000008F439C1EB018881823008F433C194309E
:1001100069F4843009F02FC111969C91119789815F
:10012000981709F428C1A0E8B0E025C1843009F48B
:1001300021C18230A9F4923009F01DC19A01AD01AC
:1001400088E0EA010990AE01E90109929E0181501F
:10015000C1F7E201898111969C918923818308C1AD
:10016000923009F407C112962D903C901397EB0141
:100170008A819B811496AD90BD90CD90DC901797AD
:10018000EC80FD800E811F819101281B390BB90184
:1001900037FF04C066277727621B730B6032710537
:1001A0000CF061C0121613066CF537014801062EDB
:1001B00004C096948794779467940A94D2F721E0C8
:1001C00030E040E050E004C0220F331F441F551FB1
:1001D0006A95D2F721503040404050402E213F21B7
:1001E00040235123211531054105510521F021E01E
:1001F00030E040E050E079018A01E628F72808293C
:1002000019293CC0232BD1F1260E371E350146019A
:10021000062E04C096948794779467940A94D2F734
:1002200021E030E040E050E004C0220F331F441FC3
:10023000551F6A95D2F721503040404050402A2146
:100240003B214C215D21211531054105510521F04E
:1002500021E030E040E050E059016A01A628B728CB
:10026000C828D9280BC0821593052CF01C01AA249C
:10027000BB24650103C0EE24FF24870111969C91E5
:10028000D20111968C91981709F445C0992339F041
:10029000A80197012A193B094C095D0906C0A6016E
:1002A00095012E193F09400B510B57FD08C01182D3
:1002B0003382228224833583468357831DC081E0A5
:1002C00081833382228288279927DC01821B930B4A
:1002D000A40BB50B84839583A683B7830DC0220F2F
:1002E000331F441F551F24833583468357838281E0
:1002F000938101979383828324813581468157813D
:10030000DA01C9010197A109B1098F5F9F4FAF4F72
:10031000BF4328F30BC0918333822282EA0CFB1C7B
:100320000C1D1D1DE482F5820683178383E0808304
:10033000248135814681578157FF1AC0C901AA27F8
:1003400097FDA095BA2F81709070A070B0705695EF
:10035000479537952795822B932BA42BB52B848318
:100360009583A683B7838281938101969383828349
:10037000DF0101C0D201CD01CDB7DEB7E2E10C94BF
:10038000BB19A0E2B0E0E7ECF1E00C94AB19698393
:100390007A838B839C832D833E834F835887E9E048
:1003A000EE2EF12CEC0EFD1ECE010196B7010E943F
:1003B0007F058E010F5E1F4FCE010596B8010E948A
:1003C0007F058A8991E089278A8BC701B801AE0130
:1003D000475E5F4F0E9475000E94AA04A096E6E067
:1003E0000C94C719A0E2B0E0E8EFF1E00C94AB196F
:1003F00069837A838B839C832D833E834F835887C5
:10040000F9E0EF2EF12CEC0EFD1ECE010196B701A6
:100410000E947F058E010F5E1F4FCE010596B80129
:100420000E947F05C701B801AE01475E5F4F0E9481
:1004300075000E94AA04A096E6E00C94C719A0E2F9
:10044000B0E0E5E2F2E00C949F1969837A838B8334
:100450009C832D833E834F835887CE010196BE0136
:10046000675F7F4F0E947F05CE010596BE016F5EDC
:100470007F4F0E947F059985923088F0898982306C
:10048000C8F0943019F4823051F404C0843029F457
:10049000923081F480E890E0C6C0923049F420E0C8
:1004A0009A858A89981321E02A87CE010996BBC0D4
:1004B000823049F420E09A858A89981321E02A8BBA
:1004C000CE014196B0C02D843E844F8458886D88FB
:1004D0007E888F88988CEE24FF248701AA24BB2471
:1004E000650140E050E060E070E0E0E0F0E0C10174
:1004F00081709070892BE9F0E60CF71C081D191D1E
:100500009A01AB012A0D3B1D4C1D5D1D80E090E062
:10051000A0E0B0E0E614F7040805190520F481E036
:1005200090E0A0E0B0E0BA01A901480F591F6A1F8E
:100530007B1FAA0CBB1CCC1CDD1C97FE08C081E0F5
:1005400090E0A0E0B0E0A82AB92ACA2ADB2A3196B6
:10055000E032F10549F0660C771C881C991C569412
:10056000479437942794C3CFFA85EA892B893C892D
:100570008B859C85280F391F2E5F3F4F17C0CA01FE
:1005800081709070892B61F016950795F794E79428
:1005900080E090E0A0E0B0E8E82AF92A0A2B1B2BC3
:1005A00076956795579547952F5F3F4F77FDE7CF36
:1005B0000CC0440F551F661F771F17FD4160EE0CDE
:1005C000FF1C001F111F21503040403090E05907A0
:1005D00090E0690790E4790760F32B8F3C8FDB0193
:1005E000CA018F779070A070B07080349105A1051A
:1005F000B10561F447FD0AC0E114F10401051105DC
:1006000029F0405C5F4F6F4F7F4F40781A8EFE1786
:1006100011F081E08A8F4D8F5E8F6F8F78A383E01A
:10062000898FCE0149960E94AA04A096E2E10C941B
:10063000BB19A8E1B0E0EFE1F3E00C94AB196983DA
:100640007A838B839C832D833E834F83588789E0F5
:10065000E82EF12CEC0EFD1ECE010196B7010E9492
:100660007F058E010F5E1F4FCE010596B8010E94D7
:100670007F058985823040F08989823028F0C70162
:10068000B8010E94F70501C08FEF6896E6E00C9470
:10069000C719A8E1B0E0EFE4F3E00C94AB1969836B
:1006A0007A838B839C832D833E834F83588789E095
:1006B000E82EF12CEC0EFD1ECE010196B7010E9432
:1006C0007F058E010F5E1F4FCE010596B8010E9477
:1006D0007F058985823040F08989823028F0C70102
:1006E000B8010E94F70501C08FEF6896E6E00C9410
:1006F000C719A8E1B0E0EFE7F3E00C94AB19698308
:100700007A838B839C832D833E834F83588789E034
:10071000E82EF12CEC0EFD1ECE010196B7010E94D1
:100720007F058E010F5E1F4FCE010596B8010E9416
:100730007F058985823040F08989823028F0C701A1
:10074000B8010E94F70501C081E06896E6E00C94CC
:10075000C719A8E0B0E0EFEAF3E00C94A8199B01F8
:10076000AC0183E08983DA01C9018827B7FD83954D
:100770009927AA27BB27B82E211531054105510518
:1007800019F482E089833AC08823A9F0203080E000
:10079000380780E0480780E8580729F460E070E0F7
:1007A00080E09FEC30C0EE24FF248701E21AF30AB8
:1007B000040B150B02C079018A018EE1C82ED12CE1
:1007C000DC82CB82ED82FE820F831887C801B701DD
:1007D0000E945B0401971816190684F4082E04C0C1
:1007E000EE0CFF1C001F111F0A94D2F7ED82FE824F
:1007F0000F831887C81AD90ADC82CB82BA82CE014D
:1008000001960E94AA042896E9E00C94C419ACE071
:10081000B0E0EDE0F4E00C94AF1969837A838B8348
:100820009C83CE010196BE016B5F7F4F0E947F05C6
:100830008D81823061F1823050F1843021F48E81DB
:10084000882351F12EC02F81388537FD20C06E815D
:100850002F3131051CF06623F9F023C08EE190E0C2
:10086000821B930B29853A854B855C8504C0569580
:100870004795379527958A95D2F76623B1F050951D
:100880004095309521953F4F4F4F5F4F0EC020E070
:1008900030E040E050E009C02FEF3FEF4FEF5FE75F
:1008A00004C020E030E040E050E8B901CA012C96D5
:1008B000E2E00C94CB19EF92FF920F931F937B0110
:1008C0008C0180E0E81680E0F80681E0080780E00F
:1008D000180788F48FEFE816F1040105110531F0CF
:1008E00028F088E090E0A0E0B0E017C080E090E061
:1008F000A0E0B0E012C080E0E81680E0F80680E0FA
:10090000080781E0180728F088E190E0A0E0B0E057
:1009100004C080E190E0A0E0B0E020E230E040E000
:1009200050E0281B390B4A0B5B0B04C0169507954A
:10093000F794E7948A95D2F7F701E857FF4F808143
:10094000281B310941095109C9011F910F91FF90DD
:10095000EF900895DF92EF92FF920F931F93FC01A7
:10096000E480F58006811781D1808081823048F44F
:1009700080E090E0A0E1B0E0E82AF92A0A2B1B2BE6
:10098000A5C0843009F49FC0823021F4EE24FF24F6
:10099000870105C0E114F1040105110519F4E0E037
:1009A000F0E096C0628173819FEF623879070CF0A6
:1009B0005BC022E83FEF261B370B2A3131052CF0B4
:1009C00020E030E040E050E02AC0B801A701022E4C
:1009D00004C076956795579547950A94D2F781E0BC
:1009E00090E0A0E0B0E004C0880F991FAA1FBB1FD1
:1009F0002A95D2F70197A109B1098E219F21A02341
:100A0000B1230097A105B10521F081E090E0A0E0BD
:100A1000B0E09A01AB01282B392B4A2B5B2BDA0172
:100A2000C9018F779070A070B07080349105A105D6
:100A3000B10539F427FF09C0205C3F4F4F4F5F4F8E
:100A400004C0215C3F4F4F4F5F4FE0E0F0E02030AB
:100A5000A0E03A07A0E04A07A0E45A0710F0E1E05E
:100A6000F0E079018A0127C06038710564F5FB0167
:100A7000E158FF4FD801C7018F779070A070B07018
:100A800080349105A105B10539F4E7FE0DC080E47D
:100A900090E0A0E0B0E004C08FE390E0A0E0B0E020
:100AA000E80EF91E0A1F1B1F17FF05C016950795B4
:100AB000F794E794319687E016950795F794E794B5
:100AC0008A95D1F705C0EE24FF248701EFEFF0E00F
:100AD0006E2F679566276795902F9F77D794DD24B3
:100AE000D7948E2F8695492F462B582F5D29B70115
:100AF000CA011F910F91FF90EF90DF900895FC01C4
:100B0000DB01408151812281622F6F7770E0221FCB
:100B10002227221F9381892F880F822B282F30E0D4
:100B2000991F9927991F11969C93119721153105AB
:100B3000A9F5411551056105710511F482E037C031
:100B400082E89FEF13969C938E9312979A01AB01C4
:100B500067E0220F331F441F551F6A95D1F783E0CA
:100B60008C930DC0220F331F441F551F12968D9179
:100B70009C911397019713969C938E931297203014
:100B800080E0380780E0480780E4580758F314965F
:100B90002D933D934D935C93179708952F3F310507
:100BA00079F4411551056105710519F484E08C93C0
:100BB000089564FF03C081E08C9312C01C9210C0A2
:100BC0002F57304013963C932E93129783E08C93CB
:100BD00087E0440F551F661F771F8A95D1F7706411
:100BE00014964D935D936D937C93179708951F937F
:100BF000DC01FB019C91923008F447C08081823077
:100C000008F443C0943051F411961C91843099F546
:100C10008181682F70E0611B71093FC0843021F031
:100C2000923031F48230B9F18181882389F12DC06D
:100C300011961C9111978230F1F081811817D9F427
:100C400012962D913C91139782819381821793077D
:100C500094F028173907BCF014968D919D910D9052
:100C6000BC91A02D248135814681578128173907F1
:100C70004A075B0718F4112341F00AC08217930753
:100C8000A407B50740F4112319F061E070E005C036
:100C90006FEF7FEF02C060E070E0CB011F9108951D
:100CA000DF93CF93CDB7DEB76B970FB6F894DEBF67
:100CB0000FBECDBF9E012F5F3F4F3B8B2A8B80E93C
:100CC00091E09D8B8C8B96E09E8BEC89FD8900805A
:100CD0002C893D892F5F3F4F3D8B2C8BEA89FB8907
:100CE00000822A893B892F5F3F4F3B8B2A8B3E89AD
:100CF00031503E8B8E89882341F7FE013796F88F5D
:100D0000EF8B29E831E03A8F298F37E03B8FE98D6F
:100D1000FA8D0080298D3A8D2F5F3F4F3A8F298FB2
:100D2000EF89F88D00822F89388D2F5F3F4F388FE4
:100D30002F8B3B8D31503B8F8B8D882341F781E08A
:100D40008E878AEF8F87CE0101960E945417CE01BD
:100D500007960E945218CE010E960E94CC170E9450
:100D600095160E946A110E94D30C0E94D0068AEC4C
:100D70000E94EB180E940219E82FF0E0F98BE88B33
:100D8000288939892535310541F088899989863640
:100D9000910569F70E941C08EACF0E94690AE7CF13
:100DA0000F931F93DF93CF93CDB7DEB72E970FB678
:100DB000F894DEBF0FBECDBF1092970110929B0139
:100DC0001092A1018AEC0E94EB181092A0010FC0B2
:100DD0008091A001082F10E00E940219F801E55649
:100DE000FE4F80838091A0018F5F8093A00180914E
:100DF000A001853068F38AEC0E94EB181092A001E4
:100E00000FC08091A001082F10E00E940219F80184
:100E1000EF55FE4F80838091A0018F5F8093A001EA
:100E20008091A001853068F30E948B161092A0017A
:100E300011C08091A001882F90E0FC01E556FE4F83
:100E40008081882F90E00E9468168091A0018F5FBA
:100E50008093A0018091A001853058F381E060E08B
:100E60000E940D161092A00111C08091A001882F40
:100E700090E0FC01EF55FE4F8081882F90E00E94AA
:100E800068168091A0018F5F8093A0018091A001DE
:100E9000853058F31092A0011AC08091A001882FCC
:100EA00090E0FC01E556FE4F20818091A001882F43
:100EB00090E0FC01EF55FE4F8081281719F0109249
:100EC000880109C08091A0018F5F8093A00180916B
:100ED000A001853010F30E9402198C3AE1F780914D
:100EE00088010E94EB1880918801813009F094C03C
:100EF00081E0809397011092A00189C08091A001A8
:100F0000882F90E00196AC018091A001882F90E09D
:100F1000FC01E556FE4F2081CA01622F0E948B0D15
:100F200080E090E0A0E2B1E48B879C87AD87BE872C
:100F30006B857C858D859E8520E030E04AE753E413
:100F40000E941F02DC01CB018F839887A987BA8793
:100F50006F81788589859A8520E030E040E85FE3FD
:100F60000E94790388232CF481E090E09E838D8396
:100F70003FC06F81788589859A8520E03FEF4FE7F4
:100F800057E40E94190318164CF56B857C858D85F6
:100F90009E8520E030E040E251E40E941F02DC0127
:100FA000CB01BC01CD010E944900DC01CB019E8335
:100FB0008D830FC089E190E09C838B838B819C8122
:100FC0000197F1F79C838B838D819E8101979E838E
:100FD0008D838D819E81009769F714C06F8178851C
:100FE00089859A850E944900DC01CB019E838D830F
:100FF0008D819E819A83898389819A810197F1F7F6
:101000009A8389838091A0018F5F8093A001809152
:10101000A001853008F472CF80919701882309F4EC
:10102000CBCE2E960FB6F894DEBF0FBECDBFCF91BC
:10103000DF911F910F9108950F931F93DF93CF932B
:10104000CDB7DEB7AA970FB6F894DEBF0FBECDBFFF
:1010500081E0809388018AEC0E94EB181092A00135
:101060000FC08091A001082F10E00E940219F80122
:10107000E556FE4F80838091A0018F5F8093A00191
:101080008091A001853068F31092A00188C0809102
:10109000A001882F90E00196AC018091A001882FDB
:1010A00090E09C012F553E4FCA01B9010E94CC0D22
:1010B00080E090E0A0E2B1E48FA398A7A9A7BAA727
:1010C0006FA178A589A59AA520E030E04AE753E40E
:1010D0000E941F02DC01CB018BA39CA3ADA3BEA386
:1010E0006BA17CA18DA19EA120E030E040E85FE3F0
:1010F0000E94790388232CF481E090E09AA389A3CD
:101100003FC06BA17CA18DA19EA120E03FEF4FE7E6
:1011100057E40E94190318164CF56FA178A589A50C
:101120009AA520E030E040E251E40E941F02DC0179
:10113000CB01BC01CD010E944900DC01CB019AA387
:1011400089A30FC089E190E098A38F8F8F8D98A11C
:101150000197F1F798A38F8F89A19AA101979AA37C
:1011600089A389A19AA1009769F714C06BA17CA1FA
:101170008DA19EA10E944900DC01CB019AA389A305
:1011800089A19AA19E8F8D8F8D8D9E8D0197F1F7EC
:101190009E8F8D8F8091A0018F5F8093A0018091A1
:1011A000A001853008F473CF1092A0011AC080917D
:1011B000A001882F90E0FC01E556FE4F2081809130
:1011C000A001882F90E0FC01EF55FE4F8081281789
:1011D00019F01092880109C08091A0018F5F80935F
:1011E000A0018091A001853010F30E9402198C3A71
:1011F000E1F7809188010E94EB188091880181308D
:1012000009F0ACC00E948B1620E630E080E064E07C
:10121000A9010E944F1680E090E0AAEFB3E4898F05
:101220009A8FAB8FBC8F698D7A8D8B8D9C8D20E0D2
:1012300030E04AE753E40E941F02DC01CB018D8BB2
:101240009E8BAF8BB88F6D897E898F89988D20E0BA
:1012500030E040E85FE30E94790388232CF481E0CA
:1012600090E09C8B8B8B3FC06D897E898F89988D98
:1012700020E03FEF4FE757E40E94190318164CF5A2
:10128000698D7A8D8B8D9C8D20E030E040E251E4B9
:101290000E941F02DC01CB01BC01CD010E9449006C
:1012A000DC01CB019C8B8B8B0FC089E190E09A8B8A
:1012B000898B89899A890197F1F79A8B898B8B8918
:1012C0009C8901979C8B8B8B8B899C89009769F7F4
:1012D00014C06D897E898F89988D0E944900DC0138
:1012E000CB019C8B8B8B8B899C89988B8F878F856F
:1012F00098890197F1F7988B8F871092960180E07B
:1013000064E60E94B1168DE59AE00E94BA178091BA
:1013100096018F30E1F71092960182E060E00E9422
:10132000B1168DE59AE00E94BA178091960183303C
:10133000E1F71092960181E064E60E94B1168DE516
:101340009AE00E94BA17809196018F30E1F782E00F
:1013500060E00E94B1160E94A11785C00E948B1602
:1013600028E630E080E064E0A9010E944F1680E0AA
:1013700090E0AAEFB3E48B879C87AD87BE876B852F
:101380007C858D859E8520E030E04AE753E40E940D
:101390001F02DC01CB018F839887A987BA876F81F1
:1013A000788589859A8520E030E040E85FE30E94F7
:1013B000790388232CF481E090E09E838D833FC0E5
:1013C0006F81788589859A8520E03FEF4FE757E464
:1013D0000E94190318164CF56B857C858D859E85BA
:1013E00020E030E040E251E40E941F02DC01CB012A
:1013F000BC01CD010E944900DC01CB019E838D839D
:101400000FC089E190E09C838B838B819C81019745
:10141000F1F79C838B838D819E8101979E838D83C1
:101420008D819E81009769F714C06F8178858985C9
:101430009A850E944900DC01CB019E838D838D81BA
:101440009E819A83898389819A810197F1F79A8392
:101450008983809198018F5F809398018091980192
:10146000833008F4F5CD809198018330D9F410923F
:1014700096010E948B1622E730E080E062E0A9012D
:101480000E944F160E94E40C8DE59AE00E94BA1764
:10149000809196018C33E1F70E94A1170E94F00C15
:1014A00010929801AA960FB6F894DEBF0FBECDBF7A
:1014B000CF91DF911F910F910895DF93CF93CDB717
:1014C000DEB7809196018F5F80939601CF91DF9177
:1014D00008950F931F93DF93CF93CDB7DEB7AA97ED
:1014E0000FB6F894DEBF0FBECDBF81E080938801B8
:1014F0008AEC0E94EB181092A0010FC08091A0010D
:10150000082F10E00E940219F801E556FE4F808373
:101510008091A0018F5F8093A0018091A001853010
:1015200068F31092A00188C08091A001882F90E0FC
:101530000196AC018091A001882F90E09C012F556D
:101540003E4FCA01B9010E94CC0D80E090E0A8E4B2
:10155000B2E48FA398A7A9A7BAA76FA178A589A578
:101560009AA520E030E04AE753E40E941F02DC0124
:10157000CB018BA39CA3ADA3BEA36BA17CA18DA12A
:101580009EA120E030E040E85FE30E9479038823D9
:101590002CF481E090E09AA389A33FC06BA17CA1C9
:1015A0008DA19EA120E03FEF4FE757E40E94190371
:1015B00018164CF56FA178A589A59AA520E030E012
:1015C00040E251E40E941F02DC01CB01BC01CD01CD
:1015D0000E944900DC01CB019AA389A30FC089E1D5
:1015E00090E098A38F8F8F8D98A10197F1F798A322
:1015F0008F8F89A19AA101979AA389A389A19AA102
:10160000009769F714C06BA17CA18DA19EA10E94D7
:101610004900DC01CB019AA389A389A19AA19E8FDD
:101620008D8F8D8D9E8D0197F1F79E8F8D8F80917F
:10163000A0018F5F8093A0018091A001853008F404
:1016400073CF1092A00134C08091A001882F90E048
:10165000FC01E556FE4F20818091A001882F90E08B
:10166000FC01EF55FE4F8081281719F01092880178
:1016700023C00E948B161092A00111C08091A0017E
:10168000882F90E0FC01EF55FE4F8081882F90E07D
:101690000E9468168091A0018F5F8093A0018091C5
:1016A000A001853058F38091A0018F5F8093A00145
:1016B0008091A001853040F20E9402198C3AE1F736
:1016C000809188010E94EB1880918801813009F097
:1016D0007EC00E948B1620E630E080E064E0A90125
:1016E0000E944F1680E090E0AAEFB3E4898F9A8FB2
:1016F000AB8FBC8F698D7A8D8B8D9C8D20E030E017
:101700004AE753E40E941F02DC01CB018D8B9E8BC4
:10171000AF8BB88F6D897E898F89988D20E030E0FE
:1017200040E85FE30E94790388232CF481E090E095
:101730009C8B8B8B3FC06D897E898F89988D20E033
:101740003FEF4FE757E40E94190318164CF5698DD7
:101750007A8D8B8D9C8D20E030E040E251E40E9438
:101760001F02DC01CB01BC01CD010E944900DC015C
:10177000CB019C8B8B8B0FC089E190E09A8B898B7E
:1017800089899A890197F1F79A8B898B8B899C8932
:1017900001979C8B8B8B8B899C89009769F714C070
:1017A0006D897E898F89988D0E944900DC01CB016B
:1017B0009C8B8B8B8B899C89988B8F878F85988945
:1017C0000197F1F7988B8F870E94D00685C00E9401
:1017D0008B1628E630E080E064E0A9010E944F16F5
:1017E00080E090E0AAEFB3E48B879C87AD87BE874B
:1017F0006B857C858D859E8520E030E04AE753E44B
:101800000E941F02DC01CB018F839887A987BA87CA
:101810006F81788589859A8520E030E040E85FE334
:101820000E94790388232CF481E090E09E838D83CD
:101830003FC06F81788589859A8520E03FEF4FE72B
:1018400057E40E94190318164CF56B857C858D852D
:101850009E8520E030E040E251E40E941F02DC015E
:10186000CB01BC01CD010E944900DC01CB019E836C
:101870008D830FC089E190E09C838B838B819C8159
:101880000197F1F79C838B838D819E8101979E83C5
:101890008D838D819E81009769F714C06F81788553
:1018A00089859A850E944900DC01CB019E838D8346
:1018B0008D819E819A83898389819A810197F1F72D
:1018C0009A838983809198018F5F8093980180919A
:1018D0009801833008F409CE809198018330D9F4BF
:1018E000109296010E948B1622E730E080E062E0C1
:1018F000A9010E944F160E94E40C8DE59AE00E9417
:10190000BA17809196018C33E1F70E94A1170E94CB
:10191000F00C10929801AA960FB6F894DEBF0FBE95
:10192000CDBFCF91DF911F910F9108950F931F931A
:10193000DF93CF930F92CDB7DEB78983E2E5F0E076
:1019400010820CE510E08981882F90E0AA2797FD8E
:10195000A095BA2FBC01CD010E94A903DC01CB01E7
:10196000BC01CD0123E333E343E250E40E941F02B4
:10197000DC01CB01BC01CD010E944900DC01CB019F
:10198000F8018083A7E3B0E0E7E3F0E080818860BE
:101990008C93E3E5F0E08AE680830F90CF91DF91AE
:1019A0001F910F910895DF93CF93CDB7DEB781E0FC
:1019B00066E041E00E942C0E81E066E040E00E947B
:1019C000170FCF91DF910895DF93CF93CDB7DEB797
:1019D00081E066E041E00E94170FCF91DF9108950A
:1019E000DF93CF93CDB7DEB781E066E040E00E94A1
:1019F000170FCF91DF910895DF93CF93CDB7DEB767
:101A00002E970FB6F894DEBF0FBECDBF81E066E023
:101A100041E00E94170F80E090E0A8ECB2E48B87D1
:101A20009C87AD87BE876B857C858D859E8520E0F4
:101A300030E04AE753E40E941F02DC01CB018F83B0
:101A40009887A987BA876F81788589859A8520E0EC
:101A500030E040E85FE30E94790388232CF481E0C2
:101A600090E09E838D833FC06F81788589859A85BC
:101A700020E03FEF4FE757E40E94190318164CF59A
:101A80006B857C858D859E8520E030E040E251E4C9
:101A90000E941F02DC01CB01BC01CD010E94490064
:101AA000DC01CB019E838D830FC089E190E09C8394
:101AB0008B838B819C810197F1F79C838B838D8134
:101AC0009E8101979E838D838D819E81009769F70A
:101AD00014C06F81788589859A850E944900DC0150
:101AE000CB019E838D838D819E819A838983898199
:101AF0009A810197F1F79A83898381E066E040E05B
:101B00000E94170F2E960FB6F894DEBF0FBECDBF02
:101B1000CF91DF910895DF93CF9300D000D0CDB760
:101B2000DEB79A8389836B830E94EB170E94431868
:101B3000883011F01C8228C089819A81807097704A
:101B4000880F892F881F990B9195806A0E9406182B
:101B50000E944318883111F01C8216C089810E94AE
:101B600006180E944318883211F01C820DC08B8128
:101B70000E9406180E944318883211F01C8204C08B
:101B80000E94FB1781E08C838C810F900F900F9047
:101B90000F90CF91DF910895DF93CF9300D000D0C5
:101BA0000F92CDB7DEB79A8389837C836B830E94C3
:101BB000EB170E944318883011F01D8244C08981C0
:101BC0009A8180709770880F892F881F990B919543
:101BD000806A0E9406180E944318883111F01D8205
:101BE00032C089810E9406180E944318883211F081
:101BF0001D8229C00E94EB170E944318803111F00A
:101C00001D8221C089819A8180709770880F892FE9
:101C1000881F990B9195816A0E9406180E944318AB
:101C2000803411F01D820FC00E943018EB81FC81BE
:101C300080830E944318883511F01D8204C00E94E1
:101C4000FB1781E08D838D810F900F900F900F9087
:101C50000F90CF91DF910895DF93CF9300D000D004
:101C60000F92CDB7DEB789836A834B838A81883030
:101C700008F0D5C08981843008F0D1C08981282F2F
:101C800030E03D832C838C819D818130910509F466
:101C900043C02C813D81223031052CF48C819D8103
:101CA000009771F0BCC02C813D812230310509F4D0
:101CB0005FC08C819D818330910509F485C0AFC0E0
:101CC0008B818130A1F4AAE3B0E0EAE3F0E0808107
:101CD000482F8A81282F30E081E090E0022E02C058
:101CE000880F991F0A94E2F7842B8C9398C0AAE37B
:101CF000B0E0EAE3F0E08081482F8A81282F30E0CD
:101D000081E090E0022E02C0880F991F0A94E2F74A
:101D1000809584238C9383C08B818130A1F4A7E3C9
:101D2000B0E0E7E3F0E08081482F8A81282F30E09F
:101D300081E090E0022E02C0880F991F0A94E2F71A
:101D4000842B8C936CC0A7E3B0E0E7E3F0E08081E4
:101D5000482F8A81282F30E081E090E0022E02C0D7
:101D6000880F991F0A94E2F7809584238C9357C0BB
:101D70008B818130A1F4A4E3B0E0E4E3F0E0808162
:101D8000482F8A81282F30E081E090E0022E02C0A7
:101D9000880F991F0A94E2F7842B8C9340C0A4E328
:101DA000B0E0E4E3F0E08081482F8A81282F30E022
:101DB00081E090E0022E02C0880F991F0A94E2F79A
:101DC000809584238C932BC08B818130A1F4A1E377
:101DD000B0E0E1E3F0E08081482F8A81282F30E0F5
:101DE00081E090E0022E02C0880F991F0A94E2F76A
:101DF000842B8C9314C0A1E3B0E0E1E3F0E0808198
:101E0000482F8A81282F30E081E090E0022E02C026
:101E1000880F991F0A94E2F7809584238C930F9082
:101E20000F900F900F900F90CF91DF910895DF9357
:101E3000CF9300D000D00F92CDB7DEB789836A83ED
:101E40004B838A81883008F0D5C08981843008F0BE
:101E5000D1C08981282F30E03D832C838C819D81E6
:101E60008130910509F443C02C813D812230310538
:101E70002CF48C819D81009771F0BCC02C813D8138
:101E80002230310509F45FC08C819D81833091053A
:101E900009F485C0AFC08B818130A1F4ABE3B0E021
:101EA000EBE3F0E08081482F8A81282F30E081E049
:101EB00090E0022E02C0880F991F0A94E2F7842B4B
:101EC0008C9398C0ABE3B0E0EBE3F0E08081482F67
:101ED0008A81282F30E081E090E0022E02C0880F36
:101EE000991F0A94E2F7809584238C9383C08B8199
:101EF0008130A1F4A8E3B0E0E8E3F0E08081482F6E
:101F00008A81282F30E081E090E0022E02C0880F05
:101F1000991F0A94E2F7842B8C936CC0A8E3B0E07D
:101F2000E8E3F0E08081482F8A81282F30E081E0CB
:101F300090E0022E02C0880F991F0A94E2F7809564
:101F400084238C9357C08B818130A1F4A5E3B0E04A
:101F5000E5E3F0E08081482F8A81282F30E081E09E
:101F600090E0022E02C0880F991F0A94E2F7842B9A
:101F70008C9340C0A5E3B0E0E5E3F0E08081482F1A
:101F80008A81282F30E081E090E0022E02C0880F85
:101F9000991F0A94E2F7809584238C932BC08B8140
:101FA0008130A1F4A2E3B0E0E2E3F0E08081482FC9
:101FB0008A81282F30E081E090E0022E02C0880F55
:101FC000991F0A94E2F7842B8C9314C0A2E3B0E02B
:101FD000E2E3F0E08081482F8A81282F30E081E021
:101FE00090E0022E02C0880F991F0A94E2F78095B4
:101FF00084238C930F900F900F900F900F90CF91A0
:10200000DF910895DF93CF9300D000D00F92CDB72A
:10201000DEB78A836B8319828B81883008F084C095
:102020008A81843008F080C08A81282F30E03D8387
:102030002C834C815D814130510579F18C819D81EA
:102040008230910534F42C813D812115310569F0F0
:102050006BC04C815D8142305105B9F18C819D810D
:102060008330910509F449C05FC0E9E3F0E0808165
:10207000282F30E08B81882F90E0A90102C0559570
:1020800047958A95E2F7CA0181709070882319F00C
:1020900081E0898349C0198247C0E6E3F0E080818E
:1020A000282F30E08B81882F90E0A90102C0559540
:1020B00047958A95E2F7CA0181709070882319F0DC
:1020C00081E0898331C019822FC0E3E3F0E0808191
:1020D000282F30E08B81882F90E0A90102C0559510
:1020E00047958A95E2F7CA0181709070882319F0AC
:1020F00081E0898319C0198217C0E0E3F0E0808194
:10210000282F30E08B81882F90E0A90102C05595DF
:1021100047958A95E2F7CA0181709070882319F07B
:1021200081E0898301C0198289810F900F900F90FF
:102130000F900F90CF91DF910895DF93CF9300D050
:1021400000D0CDB7DEB789836A838981843090F56A
:102150008981282F30E03C832B838B819C818130C7
:102160009105D1F02B813C81223031052CF48B81FB
:102170009C81009761F01EC02B813C81223031058B
:1021800081F08B819C818330910581F013C0EAE35B
:10219000F0E08A8180830EC0E7E3F0E08A818083EB
:1021A00009C0E4E3F0E08A81808304C0E1E3F0E069
:1021B0008A8180830F900F900F900F90CF91DF91C5
:1021C0000895DF93CF9300D000D0CDB7DEB78983D9
:1021D0006A838981843090F58981282F30E03C839F
:1021E0002B838B819C8181309105D1F02B813C81A7
:1021F000223031052CF48B819C81009761F01EC048
:102200002B813C812230310581F08B819C81833090
:10221000910581F013C0EBE3F0E08A8180830EC06A
:10222000E8E3F0E08A81808309C0E5E3F0E08A8199
:10223000808304C0E2E3F0E08A8180830F900F90F6
:102240000F900F90CF91DF910895DF93CF9300D03F
:1022500000D0CDB7DEB78A8319828A81843090F5A9
:102260008A81282F30E03C832B838B819C818130B5
:102270009105D1F02B813C81223031052CF48B81EA
:102280009C81009761F01EC02B813C81223031057A
:1022900081F08B819C818330910581F013C0E9E34B
:1022A000F0E0808189830EC0E6E3F0E080818983DD
:1022B00009C0E3E3F0E08081898304C0E0E3F0E05B
:1022C0008081898389810F900F900F900F90CF911B
:1022D000DF910895DF93CF93CDB7DEB72E970FB67A
:1022E000F894DEBF0FBECDBF81E064E041E00E9404
:1022F0002C0E81E062E041E00E942C0E80E090E034
:10230000A0EAB1E48B879C87AD87BE876B857C850F
:102310008D859E8520E030E04AE753E40E941F024D
:10232000DC01CB018F839887A987BA876F81788575
:1023300089859A8520E030E040E85FE30E947903D8
:1023400088232CF481E090E09E838D833FC06F81D1
:10235000788589859A8520E03FEF4FE757E40E9412
:10236000190318164CF56B857C858D859E8520E0BC
:1023700030E040E251E40E941F02DC01CB01BC01CD
:10238000CD010E944900DC01CB019E838D830FC0EB
:1023900089E190E09C838B838B819C810197F1F78D
:1023A0009C838B838D819E8101979E838D838D81FC
:1023B0009E81009769F714C06F81788589859A8519
:1023C0000E944900DC01CB019E838D838D819E811B
:1023D0009A83898389819A810197F1F79A83898306
:1023E00080E06FEF0E949D1088E30E9406128CE04F
:1023F0000E94061281E00E9406122E960FB6F894F3
:10240000DEBF0FBECDBFCF91DF910895DF93CF9395
:10241000CDB7DEB7E9970FB6F894DEBF0FBECDBFDC
:1024200089AF81E064E040E00E94170F80E090E017
:10243000A0E8BFE38DAB9EABAFABB8AF6DA97EA9F3
:102440008FA998AD20E030E04AE753E40E941F02D4
:10245000DC01CB0189AB9AABABABBCAB69A97AA968
:102460008BA99CA920E030E040E85FE30E9479035B
:1024700088232CF481E090E098AB8FA73FC069A936
:102480007AA98BA99CA920E03FEF4FE757E40E946F
:10249000190318164CF56DA97EA98FA998AD20E0F7
:1024A00030E040E251E40E941F02DC01CB01BC019C
:1024B000CD010E944900DC01CB0198AB8FA70FC072
:1024C00089E190E09EA78DA78DA59EA50197F1F7C4
:1024D0009EA78DA78FA598A9019798AB8FA78FA5C9
:1024E00098A9009769F714C069A97AA98BA99CA932
:1024F0000E944900DC01CB0198AB8FA78FA598A95A
:102500009CA78BA78BA59CA50197F1F79CA78BA7F0
:1025100081E062E041E00E94170F80E090E0A0E8D7
:10252000BFE38FA398A7A9A7BAA76FA178A589A58C
:102530009AA520E030E04AE753E40E941F02DC0144
:10254000CB018BA39CA3ADA3BEA36BA17CA18DA14A
:102550009EA120E030E040E85FE30E9479038823F9
:102560002CF481E090E09AA389A33FC06BA17CA1E9
:102570008DA19EA120E03FEF4FE757E40E94190391
:1025800018164CF56FA178A589A59AA520E030E032
:1025900040E251E40E941F02DC01CB01BC01CD01ED
:1025A0000E944900DC01CB019AA389A30FC089E1F5
:1025B00090E098A38F8F8F8D98A10197F1F798A342
:1025C0008F8F89A19AA101979AA389A389A19AA122
:1025D000009769F714C06BA17CA18DA19EA10E94F8
:1025E0004900DC01CB019AA389A389A19AA19E8FFE
:1025F0008D8F8D8D9E8D0197F1F79E8F8D8F80E051
:1026000069AD0E94E11080E090E0A0E8BFE3898F0F
:102610009A8FAB8FBC8F698D7A8D8B8D9C8D20E0CE
:1026200030E04AE753E40E941F02DC01CB018D8BAE
:102630009E8BAF8BB88F6D897E898F89988D20E0B6
:1026400030E040E85FE30E94790388232CF481E0C6
:1026500090E09C8B8B8B3FC06D897E898F89988D94
:1026600020E03FEF4FE757E40E94190318164CF59E
:10267000698D7A8D8B8D9C8D20E030E040E251E4B5
:102680000E941F02DC01CB01BC01CD010E94490068
:10269000DC01CB019C8B8B8B0FC089E190E09A8B86
:1026A000898B89899A890197F1F79A8B898B8B8914
:1026B0009C8901979C8B8B8B8B899C89009769F7F0
:1026C00014C06D897E898F89988D0E944900DC0134
:1026D000CB019C8B8B8B8B899C89988B8F878F856B
:1026E00098890197F1F7988B8F8781E062E040E04D
:1026F0000E94170F80E090E0A0E8BFE38B879C87E3
:10270000AD87BE876B857C858D859E8520E030E01A
:102710004AE753E40E941F02DC01CB018F839887B4
:10272000A987BA876F81788589859A8520E030E00E
:1027300040E85FE30E94790388232CF481E090E075
:102740009E838D833FC06F81788589859A8520E03F
:102750003FEF4FE757E40E94190318164CF56B85BD
:102760007C858D859E8520E030E040E251E40E942A
:102770001F02DC01CB01BC01CD010E944900DC013C
:10278000CB019E838D830FC089E190E09C838B8376
:102790008B819C810197F1F79C838B838D819E8136
:1027A00001979E838D838D819E81009769F714C068
:1027B0006F81788589859A850E944900DC01CB016B
:1027C0009E838D838D819E819A83898389819A815D
:1027D0000197F1F79A838983E9960FB6F894DEBFE3
:1027E0000FBECDBFCF91DF910895DF93CF93CDB7CB
:1027F000DEB7E9970FB6F894DEBF0FBECDBF89AF45
:1028000081E064E041E00E94170F80E090E0A0E8E2
:10281000BFE38DAB9EABAFABB8AF6DA97EA98FA95F
:1028200098AD20E030E04AE753E40E941F02DC014B
:10283000CB0189AB9AABABABBCAB69A97AA98BA92D
:102840009CA920E030E040E85FE30E947903882300
:102850002CF481E090E098AB8FA73FC069A97AA9DA
:102860008BA99CA920E03FEF4FE757E40E94190392
:1028700018164CF56DA97EA98FA998AD20E030E01F
:1028800040E251E40E941F02DC01CB01BC01CD01FA
:102890000E944900DC01CB0198AB8FA70FC089E1F2
:1028A00090E09EA78DA78DA59EA50197F1F79EA705
:1028B0008DA78FA598A9019798AB8FA78FA598A9E9
:1028C000009769F714C069A97AA98BA99CA90E94ED
:1028D0004900DC01CB0198AB8FA78FA598A99CA7D5
:1028E0008BA78BA59CA50197F1F79CA78BA781E0EF
:1028F00062E041E00E94170F80E090E0A0E8BFE3B3
:102900008FA398A7A9A7BAA76FA178A589A59AA50B
:1029100020E030E04AE753E40E941F02DC01CB01D3
:102920008BA39CA3ADA3BEA36BA17CA18DA19EA1F3
:1029300020E030E040E85FE30E94790388232CF434
:1029400081E090E09AA389A33FC06BA17CA18DA1F7
:102950009EA120E03FEF4FE757E40E9419031816AD
:102960004CF56FA178A589A59AA520E030E040E25A
:1029700051E40E941F02DC01CB01BC01CD010E9489
:102980004900DC01CB019AA389A30FC089E190E043
:1029900098A38F8F8F8D98A10197F1F798A38F8FB0
:1029A00089A19AA101979AA389A389A19AA10097C5
:1029B00069F714C06BA17CA18DA19EA10E94490062
:1029C000DC01CB019AA389A389A19AA19E8F8D8F47
:1029D0008D8D9E8D0197F1F79E8F8D8F80E069AD73
:1029E0000E94E11080E090E0A0E8BFE3898F9A8F19
:1029F000AB8FBC8F698D7A8D8B8D9C8D20E030E004
:102A00004AE753E40E941F02DC01CB018D8B9E8BB1
:102A1000AF8BB88F6D897E898F89988D20E030E0EB
:102A200040E85FE30E94790388232CF481E090E082
:102A30009C8B8B8B3FC06D897E898F89988D20E020
:102A40003FEF4FE757E40E94190318164CF5698DC4
:102A50007A8D8B8D9C8D20E030E040E251E40E9425
:102A60001F02DC01CB01BC01CD010E944900DC0149
:102A7000CB019C8B8B8B0FC089E190E09A8B898B6B
:102A800089899A890197F1F79A8B898B8B899C891F
:102A900001979C8B8B8B8B899C89009769F714C05D
:102AA0006D897E898F89988D0E944900DC01CB0158
:102AB0009C8B8B8B8B899C89988B8F878F85988932
:102AC0000197F1F7988B8F8781E062E040E00E94E8
:102AD000170F80E090E0A0E8BFE38B879C87AD876D
:102AE000BE876B857C858D859E8520E030E04AE73A
:102AF00053E40E941F02DC01CB018F839887A987D2
:102B0000BA876F81788589859A8520E030E040E832
:102B10005FE30E94790388232CF481E090E09E8398
:102B20008D833FC06F81788589859A8520E03FEF4E
:102B30004FE757E40E94190318164CF56B857C8506
:102B40008D859E8520E030E040E251E40E941F0226
:102B5000DC01CB01BC01CD010E944900DC01CB01AD
:102B60009E838D830FC089E190E09C838B838B8152
:102B70009C810197F1F79C838B838D819E810197C6
:102B80009E838D838D819E81009769F714C06F812C
:102B9000788589859A850E944900DC01CB019E8356
:102BA0008D838D819E819A83898389819A81019702
:102BB000F1F79A838983E9960FB6F894DEBF0FBECA
:102BC000CDBFCF91DF910895DF93CF9300D00F92C7
:102BD000CDB7DEB79B838A8319820EC08981282FE7
:102BE00030E08A819B81FC01E20FF31F80810E940B
:102BF000F51389818F5F89838981282F30E08A814D
:102C00009B81FC01E20FF31F8081882339F70F902D
:102C10000F900F90CF91DF910895DF93CF9300D065
:102C200000D00F92CDB7DEB78A836B838A81282FBD
:102C300030E03D832C838C819D8181309105C1F0F2
:102C40002C813D81223031052CF48C819D810097AF
:102C500061F019C02C813D812230310569F08C81F1
:102C60009D818330910561F00EC08B8189830BC0FB
:102C70008B81805C898307C08B81805F898303C0DF
:102C80008B81805B8983898180680E9406120F9006
:102C90000F900F900F900F90CF91DF910895DF93D9
:102CA000CF9300D000D0CDB7DEB789836A835C8331
:102CB0004B8389816A810E940D168B819C810E94C1
:102CC000E4150F900F900F900F90CF91DF91089522
:102CD000DF93CF93CDB7DEB762970FB6F894DEBF20
:102CE0000FBECDBF9A8B898B89899A899E012F5FF0
:102CF0003F4FB9014AE050E00E94D619CE0101963B
:102D00000E94E41562960FB6F894DEBF0FBECDBFE9
:102D1000CF91DF910895DF93CF93CDB7DEB781E0F8
:102D20000E940612CF91DF910895DF93CF93CDB724
:102D3000DEB7A7E3B0E0E7E3F0E0808181608C9349
:102D4000A7E3B0E0E7E3F0E0808182608C93A8E342
:102D5000B0E0E8E3F0E080818C7F8C93CF91DF914D
:102D60000895DF93CF9300D0CDB7DEB789836A8310
:102D70008981882379F4A8E3B0E0E8E3F0E080817A
:102D80008C7F8C93A8E3B0E0E8E3F0E08081816081
:102D90008C931CC08981813079F4A8E3B0E0E8E32A
:102DA000F0E080818C7F8C93A8E3B0E0E8E3F0E072
:102DB000808182608C930AC08981823039F4A8E3D3
:102DC000B0E0E8E3F0E080818C7F8C938A810E9400
:102DD000960C0F900F90CF91DF9108951F920F9254
:102DE0000FB60F9211242F933F934F935F936F93DE
:102DF0007F938F939F93AF93BF93EF93FF93DF9353
:102E0000CF93CDB7DEB78091990190919A01009749
:102E100029F0E0919901F0919A010995CF91DF9104
:102E2000FF91EF91BF91AF919F918F917F916F91A2
:102E30005F914F913F912F910F900FBE0F901F9078
:102E400018951F920F920FB60F9211242F933F9354
:102E50004F935F936F937F938F939F93AF93BF93A2
:102E6000EF93FF93DF93CF93CDB7DEB780919901B6
:102E700090919A01009729F0E0919901F0919A01BF
:102E80000995CF91DF91FF91EF91BF91AF919F9104
:102E90008F917F916F915F914F913F912F910F9003
:102EA0000FBE0F901F901895DF93CF9300D0CDB732
:102EB000DEB79A838983ACE4B0E0E981FA8180814E
:102EC000918111969C938E93AAE4B0E0E981FA81F6
:102ED0008281938111969C938E93AFE4B0E0EFE4EE
:102EE000F0E080818C608C93AEE4B0E0EEE4F0E042
:102EF0008081982F987FE981FA818481892B8C9336
:102F0000AEE4B0E0EEE4F0E08081282F277FE98195
:102F1000FA818581882F90E0880F991F880F991F6B
:102F2000880F991F822B8C93A9E5B0E0E9E5F0E0CA
:102F3000808184618C9378940F900F90CF91DF9172
:102F40000895DF93CF93CDB7DEB7ECE4F0E01182C4
:102F50001082EAE4F0E011821082EFE4F0E01082E7
:102F6000EEE4F0E01082E9E5F0E01082F894CF9111
:102F7000DF910895DF93CF9300D0CDB7DEB79A836A
:102F8000898389819A8190939A01809399010F9006
:102F90000F90CF91DF910895DF93CF9300D0CDB7FD
:102FA000DEB79A838983A0E2B0E0E981FA8181816A
:102FB0008C93E1E2F0E01082A2E2B0E0E981FA81D4
:102FC00080818C93E6E5F0E084E080830F900F90A1
:102FD000CF91DF910895DF93CF93CDB7DEB7E6E5CC
:102FE000F0E084EA8083E6E5F0E080818823DCF786
:102FF000CF91DF910895DF93CF93CDB7DEB7E6E5AC
:10300000F0E084E98083CF91DF910895DF93CF933F
:103010000F92CDB7DEB78983E3E2F0E08981808348
:10302000E6E5F0E084E88083E6E5F0E0808188234F
:10303000DCF70F90CF91DF910895DF93CF93CDB759
:10304000DEB7E6E5F0E084EC8083E6E5F0E0808141
:103050008823DCF7E3E2F0E08081CF91DF910895EF
:10306000DF93CF93CDB7DEB7E6E5F0E084E8808369
:10307000E6E5F0E080818823DCF7E3E2F0E08081A0
:10308000CF91DF910895DF93CF930F92CDB7DEB745
:10309000E1E2F0E08081887F898389810F90CF9180
:1030A000DF910895DF93CF9300D000D0CDB7DEB786
:1030B0009C838B831A821982EBE2F0E082E08083AA
:1030C000EAE2F0E088E18083EB81FC818081873057
:1030D00039F4AAE2B0E0EAE2F0E0808184608C9307
:1030E000E0E4F0E080E88083A0E4B0E0E0E4F0E039
:1030F0008081282F297FEB81FC818081882F90E0BF
:10310000880F991F822B8C93EB81FC818081873003
:1031100039F4A0E4B0E0E0E4F0E08081877F8C93B4
:10312000A0E4B0E0E0E4F0E08081282F2F7CEB8188
:10313000FC818181882F90E082959295907F9827DD
:10314000807F9827822B8C93A0E4B0E0E0E4F0E04D
:103150008081282F277FEB81FC818281882F90E05E
:10316000880F991F880F991F880F991F822B8C93A6
:10317000EB81FC8183819481A581B681880F991FA1
:10318000AA1FBB1F880F991FAA1FBB1F880F991F5B
:10319000AA1FBB1F9C01AD0180E492E4AFE0B0E048
:1031A000BC01CD010E947D19DA01C90101979A8302
:1031B0008983E0E4F0E089819A81892F99278083CF
:1031C000E9E2F0E0898180830F900F900F900F90DB
:1031D000CF91DF910895DF93CF930F92CDB7DEB7F4
:1031E0008983EBE2F0E08081882F90E0807290701C
:1031F0000097B9F3ECE2F0E0898180830F90CF91E2
:10320000DF910895DF93CF93CDB7DEB7EBE2F0E027
:1032100080818823DCF7ECE2F0E08081CF91DF91C0
:103220000895DF93CF9300D00F92CDB7DEB79B8385
:103230008A8319820EC08981282F30E08A819B8180
:10324000FC01E20FF31F80810E94EB1889818F5FE0
:1032500089838981282F30E08A819B81FC01E20FDC
:10326000F31F8081882339F70F900F900F90CF9133
:10327000DF9108950F931F93DF93CF9300D00F92A8
:10328000CDB7DEB79B838A8319828981282F30E0EE
:103290008A819B818C01020F131F0E940219F80181
:1032A00080830FC089818F5F89838981282F30E0D7
:1032B0008A819B818C01020F131F0E940219F80161
:1032C00080838981282F30E08A819B81FC01E20F75
:1032D000F31F8081833231F78981282F30E08A8182
:1032E0009B81FC01E20FF31F10820F900F900F9053
:1032F000CF91DF911F910F910895A1E21A2EAA1B81
:10330000BB1BFD010DC0AA1FBB1FEE1FFF1FA21795
:10331000B307E407F50720F0A21BB30BE40BF50B92
:10332000661F771F881F991F1A9469F7609570951B
:10333000809590959B01AC01BD01CF0108952F921E
:103340003F924F925F926F927F928F929F92AF9235
:10335000BF92CF92DF92EF92FF920F931F93CF9382
:10336000DF93CDB7DEB7CA1BDB0B0FB6F894DEBF19
:103370000FBECDBF09942A88398848885F846E843F
:103380007D848C849B84AA84B984C884DF80EE8089
:10339000FD800C811B81AA81B981CE0FD11D0FB692
:1033A000F894DEBF0FBECDBFED010895FB019F0174
:1033B000E8944230C4F04532B4F44A3029F497FB23
:1033C0001EF4909581959F4F642F77270E94071ACE
:1033D000805D8A330CF0895D8193CB010097A1F762
:1033E00016F45DE251931082C9010C94F719DC01C7
:1033F000FC01672F71917723E1F7329704C07C912C
:103400006D9370836291AE17BF07C8F30895AA1B2E
:10341000BB1B51E107C0AA1FBB1FA617B70710F0BF
:10342000A61BB70B881F991F5A95A9F780959095F1
:0A343000BC01CD010895F894FFCF10
:10343A004D61746368656400554E4D6174636865D7
:10344A006400212121214552524F5221212121007C
:10345A000000000000000000000102020303030351
:10346A00040404040404040405050505050505050A
:10347A0005050505050505050606060606060606EA
:10348A0006060606060606060606060606060606D2
:10349A0006060606060606060707070707070707BA
:1034AA0007070707070707070707070707070707A2
:1034BA000707070707070707070707070707070792
:1034CA000707070707070707070707070707070782
:1034DA00070707070707070708080808080808086A
:1034EA000808080808080808080808080808080852
:1034FA000808080808080808080808080808080842
:10350A000808080808080808080808080808080831
:10351A000808080808080808080808080808080821
:10352A000808080808080808080808080808080811
:10353A000808080808080808080808080808080801
:10354A0008080808080808080808080808080808F1
:10355A000808080808080808010300008025000078
:06356A000000E80305016A
:00000001FF
